:100000000C942A000C9447000C9447000C94470071
:100010000C948C070C94B5070C94A7060C94D0068E
:100020000C94F9060C9422070C94B1050C94DA0593
:100030000C9447000C94C7090C945A090C9447007F
:100040000C9447000C9447000C9447000C94470014
:100050000C94470011241FBECFE5D8E0DEBFCDBF12
:1000600011E0A0E6B0E0ECE4F9E102C005900D92E9
:10007000AE38B107D9F721E0AEE8B1E001C01D927A
:10008000A13DB207E1F70E94890A0C94A40C0C94DC
:100090000000411134C0813089F028F08230C9F06D
:1000A000833011F1089581E090E001C0880F6A95D6
:1000B000EAF780959AB389238ABB089581E090E09E
:1000C00001C0880F6A95EAF7809597B3892387BBAB
:1000D000089581E090E001C0880F6A95EAF7809565
:1000E00094B3892384BB089581E090E001C0880F18
:1000F0006A95EAF7809591B3892381BB08954130D1
:10010000E9F7813079F028F08230A9F08330E1F00E
:10011000089521E030E001C0220F6A95EAF78AB322
:10012000822BCACF21E030E001C0220F6A95EAF7A6
:1001300087B3822BCCCF21E030E001C0220F6A953B
:10014000EAF784B3822BCECF21E030E001C0220F4A
:100150006A95EAF781B3822BD0CF413081F58130A7
:1001600081F028F08230B9F08330F9F0089521E071
:1001700030E001C0220F6A95EAF78BB3822B8BBB6C
:10018000089521E030E001C0220F6A95EAF788B3B4
:10019000822B88BB089521E030E001C0220F6A95D0
:1001A000EAF785B3822B85BB089521E030E001C0DA
:1001B000220F6A95EAF782B3822B82BB0895411120
:1001C000FDCF813081F028F08230B9F08330F9F032
:1001D000089581E090E001C0880F6A95EAF7809564
:1001E0009BB38923CCCF81E090E001C0880F6A9552
:1001F000EAF7809598B38923CCCF81E090E001C0E5
:10020000880F6A95EAF7809595B38923CCCF81E072
:1002100090E001C0880F6A95EAF7809592B3892330
:10022000CCCFFA01813081F028F0823079F0833030
:1002300079F0089589B390E002C0959587956A9505
:10024000E2F781708083089586B3F5CF83B3F3CF4F
:1002500080B3F1CF611110C0813041F028F08230BD
:1002600039F0833039F008951ABA089517BA08950D
:1002700014BA089511BA0895613099F4813049F0A3
:1002800028F0823049F0833051F008958FEF8ABB17
:1002900008958FEF87BB08958FEF84BB08958FEF8C
:1002A00081BB0895813041F028F0823039F08330ED
:1002B00039F008956ABB089567BB089564BB08953B
:1002C00061BB0895813041F028F0823039F08330ED
:1002D00039F008956BBB089568BB089565BB089518
:1002E00062BB0895FB01813049F028F0823041F073
:1002F000833041F0089589B38083089586B3FCCF9D
:1003000083B3FACF80B3F8CF8FB780688FBF0895DB
:100310008FB78F778FBF08950895CF93DF931F9284
:10032000CDB7DEB782E690E00E943A088BE490E019
:1003300090936100809360000E94060880916000A5
:10034000909161000E94010888E2282E312C9CE3E4
:10035000492E512C26E4622E712C02E310E034E188
:10036000E32EF12C4EE1C42ED12C5AE0A52EB12C57
:1003700060E5862E912CCE0101960E94310889817C
:10038000883309F470C030F5843309F457C0B0F4F1
:10039000823309F445C008F04AC0813361F7B09256
:1003A0006100A09260008AE090E00E9406088091BF
:1003B0006000909161000E940108DDCF863309F44E
:1003C0004BC008F442C0709261006092600086E405
:1003D00090E0EBCF8C34F1F068F48234C1F08634D5
:1003E00099F0893341F68AE590E09093610080931B
:1003F0006000DBCF833589F08D36E1F1823509F07D
:10040000BACF0E943B04B7CF0E941304B4CF0E941E
:100410002704B1CF0E944F04AECF0E946304ABCF3C
:10042000F0926100E092600084E190E0BECFD09253
:100430006100C09260008EE190E0B7CF3092610021
:100440002092600088E290E0B0CF109361000093AA
:10045000600082E390E0A9CF50926100409260007A
:100460008CE390E0A2CF909261008092600080E5E2
:1004700090E09BCF84E690E0B8CF6817790758F0FA
:100480006931710510F00C9485048617970750F0B8
:10049000499740F002C0499710F00C94AE046931BE
:1004A000710510F40C94D7040895CF92DF92EF9267
:1004B000FF920F931F93CF93DF931F92CDB7DEB7B9
:1004C000198283E990E00E943A08EE24EA94F12C24
:1004D00003E210E094E6C92ED12C0E94700A90939A
:1004E000B9018093B8018FE493EC0197F1F700C054
:1004F00000006CE871E0CE0101960E94EF0889814E
:10050000833761F40E9463040F90DF91CF911F91B4
:100510000F91FF90EF90DF90CF9008958091B801F8
:100520009091B901892B21F4F092B901E092B801C0
:100530008091B8019091B9014A9708F07FC0D0929C
:100540006100C092600084E690E00E9406088091FD
:100550006000909161000E9401080E9463049FE77F
:1005600028E381E0915020408040E1F700C0000086
:100570000E9427049FEF21EE84E0915020408040AC
:10058000E1F700C000000E9463049FE728E381E0D8
:10059000915020408040E1F700C0000082ED90E0E3
:1005A0000E943A069FEF29E688E191502040804062
:1005B000E1F700C000000E94700A909391018093BF
:1005C00090019FEF21EE84E0915020408040E1F7C0
:1005D00000C0000090E080E00E943A069FEF29E60C
:1005E00088E1915020408040E1F700C000000E9467
:1005F000700A90939301809392019FEF21EE84E023
:10060000915020408040E1F700C000008EE690E06D
:100610000E943A069FEF24E38CE0915020408040F6
:10062000E1F700C000006091920170919301809108
:100630009001909191010E943D024FCF41E060E016
:1006400081E00E94AD00109361000093600083E29E
:1006500090E00E94060880916000909161000E94E5
:1006600001080E94130439CF611109C041110DC066
:10067000813019F081110EC041E0842F089561305E
:1006800021F4811107C042E0F8CF413019F443E072
:10069000882399F308950F93CF93DF9300D000D070
:1006A00000D0CDB7DEB71E821D821C821B821A824B
:1006B0006CE871E0CE0101960E94EF0889818337D2
:1006C00061F40E94630426960FB6F894DEBF0FBE55
:1006D000CDBFDF91CF910F910895AE014A5F5F4F7B
:1006E00060E082E00E941101AE014C5F5F4F62E06A
:1006F00082E00E941101AE014B5F5F4F63E082E038
:100700000E941101AE014D5F5F4F64E082E00E94E4
:100710001101AE014E5F5F4F65E082E00E94110162
:100720000A812B814C816D818E810E94340381115D
:1007300005C00E9413040E946304BACF813029F4DB
:100740000E9463040E94D704F6CF823019F40E94FD
:100750004F04F1CF833079F70E943B04ECCF0E9425
:1007600062050E944B070E94F50384E60E948705FC
:1007700084E60E94620784E690E090936100809393
:1007800060000E94060880916000909161000E94C4
:1007900001080E94030641E064E083E00E944900F2
:1007A0008EE690E00E943A060E940B080E948401A7
:1007B00065E083E00E94430A40E060E082E00E943E
:1007C000490040E064E082E00E94490040E065E0CA
:1007D00082E00E94490040E062E082E00E9449001D
:1007E00040E063E082E00C94490041E060E080E09A
:1007F0000E94490041E061E080E00E94490041E040
:1008000062E080E00E94490041E063E080E00E94F5
:10081000490041E067E083E00E94490041E063E075
:1008200081E00C94490041E060E080E00E94AD006E
:1008300040E061E080E00E94AD0041E062E080E0E5
:100840000E94AD0040E063E080E00C94AD0040E029
:1008500060E080E00E94AD0041E061E080E00E9445
:10086000AD0040E062E080E00E94AD0041E063E066
:1008700080E00C94AD0040E060E080E00E94AD00BC
:1008800041E061E080E00E94AD0041E062E080E094
:100890000E94AD0040E063E080E00C94AD0041E0D8
:1008A00060E080E00E94AD0040E061E080E00E94F6
:1008B000AD0040E062E080E00E94AD0041E063E016
:1008C00080E00C94AD00109295011092940190E09C
:1008D00080E00E94060880919401909195010E9409
:1008E000010841E060E080E00E94AD0041E061E08D
:1008F00080E00E94AD0041E062E080E00E94AD0037
:1009000041E063E080E00C94AD0040E060E080E016
:100910000E94AD0041E061E080E00E94AD0041E056
:1009200062E080E00E94AD0040E063E080E00E9471
:10093000AD002FE789EA93E0215080409040E1F735
:1009400000C000000E9463042FE789EA93E0215071
:1009500080409040E1F700C00000089541E060E071
:1009600080E00E94AD0040E061E080E00E94AD00C8
:1009700040E062E080E00E94AD0041E063E080E0A2
:100980000E94AD002FE789EA93E02150804090401B
:10099000E1F700C000000E9463042FE789EA93E0BA
:1009A000215080409040E1F700C0000008950E946F
:1009B000AE040C94AE048FB58E7F8FBD8FB58D7F46
:1009C0008FBD8EB588608EBD8EB58F7E8EBD8FB586
:1009D0008F7B8FBD8FB58F778FBD84EF91E09BBDEF
:1009E0008ABD8EB5887F8EBD8EB582608EBD08951E
:1009F0008FB58E7F8FBD8FB582608FBD8EB58860BD
:100A00008EBD8EB580618EBD8FB580688FBD8FB570
:100A10008F7B8FBD80E197E297BD86BD88E893E12B
:100A20009BBD8ABD8EB5887F8EBD8EB582608EBD22
:100A300008951F93CF93DF93C82FD62F142F41E033
:100A40000E944900112331F0113061F0DF91CF9104
:100A50001F91089540E06D2F8C2FDF91CF911F9152
:100A60000C94AD0041E0F7CFEF92FF920F931F93EC
:100A7000CF93DF937C01162F042F41E0602F812F4D
:100A80000E9449000E94DB04D0E0C0E0CE15DF05E3
:100A900039F4DF91CF911F910F91FF90EF9008955E
:100AA00041E0602F812F0E94AD0008B605FEFDCF0A
:100AB00088B7806288BF40E0602F812F0E94AD0020
:100AC0002196E4CF83B7807883BF83B7886483BFE0
:100AD00083B7806383BF89B78D7F89BF89B7816002
:100AE00089BF83B7856083BF089582BF08958CBF97
:100AF000089529E031E0482F429FC001439F900DA7
:100B0000112464E670E00E94AF0A6CBF0895682F5C
:100B100070E090E080E00E94A90B20E030E048EC1B
:100B200052E40E94080B20E030E040E853E40E94C9
:100B3000370C0E947A0B6CBF0895009731F09093A8
:100B4000A5018093A40181E0089582E008950097B3
:100B500031F09093A3018093A20181E0089582E097
:100B600008951F920F920FB60F9211242F933F9367
:100B70004F935F936F937F938F939F93AF93BF93A5
:100B8000EF93FF93E091A401F091A501309709F054
:100B90000995FF91EF91BF91AF919F918F917F91B7
:100BA0006F915F914F913F912F910F900FBE0F90DA
:100BB0001F9018951F920F920FB60F9211242F932A
:100BC0003F934F935F936F937F938F939F93AF93D5
:100BD000BF93EF93FF93E091A201F091A3013097AF
:100BE00009F00995FF91EF91BF91AF919F918F917E
:100BF0007F916F915F914F913F912F910F900FBE19
:100C00000F901F9018958FB58C708FBD8EB5807E1C
:100C10008EBD8FB583608FBD8EB588618EBD8FB55B
:100C20008FBD8FB58FBD1DBC1CBC8FE19EE49BBDED
:100C30008ABD99BD88BD89B78F7E89BF89B7886015
:100C400089BF89B7846089BF8EB58F778EBD8EB519
:100C500080648EBD89B7806289BF8FB580628FBD89
:100C60008FB58F7E8FBD8EB582608EBD08959BBD82
:100C70008ABD089529E0AC01249FC001259F900DF5
:100C8000112486579D4F99BD88BD089599BD88BD93
:100C900008959DBD8CBD089597BD86BD0895813092
:100CA00021F49EB590649EBD0895811105C08EB556
:100CB0008F7B8EBD81E0089580E0089589B78062C2
:100CC00089BF089589B78F7D89BF08958EB58068E3
:100CD0008EBD08958EB58F778EBD089586B597B574
:100CE00008950E9466068EB580648EBD0E945E06E1
:100CF0008EB5887F8EBD8EB582608EBD08950097BB
:100D000031F09093A1018093A00181E0089582E0E9
:100D10000895009731F090939F0180939E0181E0A8
:100D2000089582E00895009731F090939D0180939B
:100D30009C0181E0089582E00895009731F090933E
:100D40009B0180939A0181E0089582E008951F92AB
:100D50000F920FB60F9211242F933F934F935F93EF
:100D60006F937F938F939F93AF93BF93EF93FF9373
:100D7000E091A001F091A101309709F00995FF9150
:100D8000EF91BF91AF919F918F917F916F915F9103
:100D90004F913F912F910F900FBE0F901F9018957C
:100DA0001F920F920FB60F9211242F933F934F93E0
:100DB0005F936F937F938F939F93AF93BF93EF93C3
:100DC000FF93E0919E01F0919F01309709F0099502
:100DD000FF91EF91BF91AF919F918F917F916F9113
:100DE0005F914F913F912F910F900FBE0F901F90E9
:100DF00018951F920F920FB60F9211242F933F93C5
:100E00004F935F936F937F938F939F93AF93BF9312
:100E1000EF93FF93E0919C01F0919D01309709F0D1
:100E20000995FF91EF91BF91AF919F918F917F9124
:100E30006F915F914F913F912F910F900FBE0F9047
:100E40001F9018951F920F920FB60F9211242F9397
:100E50003F934F935F936F937F938F939F93AF9342
:100E6000BF93EF93FF93E0919A01F0919B0130972C
:100E700009F00995FF91EF91BF91AF919F918F91EB
:100E80007F916F915F914F913F912F910F900FBE86
:100E90000F901F90189585B5877885BD85B58864B6
:100EA00085BD85B5806385BD89B78F7789BF89B7D3
:100EB000806489BF85B5856085BD089583BD08952B
:100EC00084BD0895682F70E090E080E00E94A90B37
:100ED00020E030E048EC52E40E94080B20E030E0D3
:100EE00040E853E40E94370C0E947A0B63BD0895DA
:100EF000009731F0909399018093980181E00895D3
:100F000082E00895009731F09093970180939601C5
:100F100081E0089582E008951F920F920FB60F921C
:100F200011242F933F934F935F936F937F938F93EE
:100F30009F93AF93BF93EF93FF93E0919801F0914C
:100F40009901309709F00995FF91EF91BF91AF9109
:100F50009F918F917F916F915F914F913F912F91D1
:100F60000F900FBE0F901F9018951F920F920FB603
:100F70000F9211242F933F934F935F936F937F931F
:100F80008F939F93AF93BF93EF93FF93E09196015D
:100F9000F0919701309709F00995FF91EF91BF917A
:100FA000AF919F918F917F916F915F914F913F9101
:100FB0002F910F900FBE0F901F90189529E031E0F0
:100FC000482F429FC001439F900D112464E670E0BA
:100FD0000E94AF0A63BD0895883040F491B5987FB0
:100FE00091BD91B5892B81BD81E0089580E0089580
:100FF00081B5886081BD089581B5886181BD11BCCE
:10100000089594E6981B892F0C94790594E6981B13
:10101000892F0C94DE07599A5898579A56985598E4
:10102000529886E880BD87E689B910BC549A539AD5
:1010300008959C01211582E0380778F481E09091B1
:10104000B50191110CC091E09093B5015D9BFECF6D
:101050005D9A2CB91092B50108958AE0F0CF83E033
:1010600008955F9BFECF2CB130E0FC0131832083DB
:1010700081E00895CF93DF93009771F0EC0181E058
:101080009991911103C0DF91CF910895892F990F04
:10109000990B0E941908F4CF82E0F5CF0F931F93AC
:1010A000CF93DF93EC0112E0892B09F011E080E08F
:1010B00001E0080F8C0F9D2F911D0E943108802F99
:1010C000FE01E00FF11D319790819111F1CF812F39
:1010D000DF91CF911F910F910895FF920F931F936E
:1010E000CF93DF93F62E02E0009709F001E0EC01C8
:1010F00010E01F1107C0802FDF91CF911F910F913A
:10110000FF900895CE010E9431081F5F2296F1CF13
:101110002091B501211115C061157105A1F021E0E3
:101120002093B5012BE030E03093B7012093B60156
:101130007093B4016093B3019093B1018093B001B7
:10114000559A81E0089582E008959C018091B5014F
:1011500081111DC021153105E1F041155105C9F07E
:1011600091E09093B501EDE0F0E0F093B701E093EA
:10117000B6013093AC012093AB015093B40140937E
:10118000B3011092AF016093B201559A089583E0C4
:10119000089582E008959C018091B50181111BC0E2
:1011A00021153105D1F061157105B9F091E09093E9
:1011B000B5014CE050E05093B7014093B601309335
:1011C000AE012093AD017093B4016093B30110920E
:1011D000AF01559A089583E0089582E00895209123
:1011E000B501211119C00097C9F061157105B1F061
:1011F00021E02093B5012EE030E03093B701209339
:10120000B6019093A9018093A8017093B4016093F3
:10121000B301579A81E0089583E0089582E008952C
:101220002091B50121111DC00097E9F0411551052C
:10123000D1F021E02093B5012FE030E03093B701E9
:101240002093B6011092AA019093A7018093A60162
:101250005093B4014093B3016093B201579A81E077
:10126000089583E0089582E008952091B501211149
:101270001DC00097E9F041155105D1F021E0209300
:10128000B50120E130E03093B7012093B601109210
:10129000AA019093A7018093A6015093B4014093B3
:1012A000B3016093B201579A81E0089583E00895F5
:1012B00082E008951F920F920FB60F9211242F9380
:1012C0003F934F935F936F937F938F939F93AF93CE
:1012D000BF93EF93FF938091B6019091B7018B304C
:1012E000910561F48091B0018CB91092B5015598C7
:1012F000E091B301F091B40109951DC08C309105C6
:1013000059F5E091AF018091AD019091AE01E80FE8
:10131000F92FF11D80818CB9E091AF01EF5FE0936F
:10132000AF018091AD019091AE01E80FF92FF11D51
:1013300080818823D1F2FF91EF91BF91AF919F916E
:101340008F917F916F915F914F913F912F910F906E
:101350000FBE0F901F9018950D9769F78091AF0100
:1013600090E0880F991F2091AB013091AC01820F62
:10137000931FFC0180818CB98091AF018F5F8093B6
:10138000AF019091B201981708F4AFCFD4CF1F925C
:101390000F920FB60F9211242F933F934F935F93A9
:1013A0006F937F938F939F93AF93BF93EF93FF932D
:1013B0008091B6019091B7018E30910589F48CB17E
:1013C000E091A801F091A90190E0918380831092AF
:1013D000B5015798E091B301F091B401099510C09F
:1013E0008F309105F1F48091AA019CB1E82FF0E0D3
:1013F00090838F5F8093AA019091B201891739F38E
:10140000FF91EF91BF91AF919F918F917F916F91DC
:101410005F914F913F912F910F900FBE0F901F90B2
:101420001895409769F72CB18091AA01482F50E098
:10143000440F551FE091A601F091A701E40FF51F9D
:1014400030E031832083D5CF8091BC018F5F8093C2
:10145000BC01813039F490E080E00E94490680E0D0
:101460000C944F06823071F40E946E069093BB017B
:101470008093BA0190E080E00E9449061092BC017E
:1014800081E0EECF0895CF93DF93C82FD62F0E942F
:10149000710684E29AE00E947F0641E06D2F8C2F56
:1014A0000E94490040E06D2F8C2F0E94AD0040E06B
:1014B00066E083E0DF91CF910C944900CF93DF93F6
:1014C000C82FD62F41E00E94AD0085E38A95F1F741
:1014D000000040E06D2F8C2FDF91CF910C94AD0078
:1014E000CF93C0E165E083E00E945E0AC150D1F76E
:1014F0002091BA013091BB01ACEFB5E80E94E50A3A
:1015000020E834E84EE150E00E94C30AC901CF91BF
:101510000895CF93DF931F92CDB7DEB70E94AF033C
:1015200085EC90E00E943A0888EF90E00E943A082B
:101530008BE591E00E943A08CE0101960E943108A5
:101540008981823631F0833639F0813649F70E943D
:101550008D010E945502E4CF0E944B03E1CF97FB1F
:10156000072E16F4009407D077FD09D00E94F40AE4
:1015700007FC05D03EF4909581959F4F0895709596
:1015800061957F4F0895A1E21A2EAA1BBB1BFD0196
:101590000DC0AA1FBB1FEE1FFF1FA217B307E40752
:1015A000F50720F0A21BB30BE40BF50B661F771FAA
:1015B000881F991F1A9469F760957095809590958A
:1015C0009B01AC01BD01CF010895A29FB001B39F63
:1015D000C001A39F700D811D1124911DB29F700D3C
:1015E000811D1124911D0895AA1BBB1B51E107C049
:1015F000AA1FBB1FA617B70710F0A61BB70B881FA3
:10160000991F5A95A9F780959095BC01CD01089531
:101610000E941C0B0C94FD0B0E94F60B58F00E94CC
:10162000EF0B40F029F45F3F29F00C94E60B5111C9
:101630000C94310C0C94EC0B0E940E0C68F3992363
:10164000B1F3552391F3951B550BBB27AA276217BE
:101650007307840738F09F5F5F4F220F331F441FCB
:10166000AA1FA9F335D00E2E3AF0E0E832D09150FF
:101670005040E695001CCAF72BD0FE2F29D0660FEC
:10168000771F881FBB1F261737074807AB07B0E82F
:1016900009F0BB0B802DBF01FF2793585F4F3AF035
:1016A0009E3F510578F00C94E60B0C94310C5F3F93
:1016B000E4F3983ED4F3869577956795B795F795BB
:1016C0009F5FC9F7880F911D9695879597F90895A3
:1016D000E1E0660F771F881FBB1F6217730784073F
:1016E000BA0720F0621B730B840BBA0BEE1F88F74E
:1016F000E09508950E94160C88F09F5798F0B92F36
:101700009927B751B0F0E1F0660F771F881F991F36
:101710001AF0BA95C9F714C0B13091F00E94300C9C
:10172000B1E008950C94300C672F782F8827B85FAC
:1017300039F0B93FCCF3869577956795B395D9F78E
:101740003EF490958095709561957F4F8F4F9F4F98
:101750000895E89409C097FB3EF4909580957095A4
:1017600061957F4F8F4F9F4F9923A9F0F92F96E9ED
:10177000BB279395F695879577956795B795F11162
:10178000F8CFFAF4BB0F11F460FF1BC06F5F7F4FFF
:101790008F4F9F4F16C0882311F096E911C0772311
:1017A00021F09EE8872F762F05C0662371F096E81A
:1017B000862F70E060E02AF09A95660F771F881FE9
:1017C000DAF7880F9695879597F9089597F99F67A7
:1017D00080E870E060E008959FEF80EC08950024B9
:1017E0000A941616170618060906089500240A9486
:1017F00012161306140605060895092E0394000C0C
:1018000011F4882352F0BB0F40F4BF2B11F460FF9A
:1018100004C06F5F7F4F8F4F9F4F089557FD9058C3
:10182000440F551F59F05F3F71F04795880F97FBA4
:10183000991F61F09F3F79F087950895121613065E
:101840001406551FF2CF4695F1DF08C0161617068D
:101850001806991FF1CF86957105610508940895C2
:10186000E894BB2766277727CB0197F908950E9454
:101870004A0C0C94FD0B0E94EF0B38F00E94F60B03
:1018800020F0952311F00C94E60B0C94EC0B112432
:101890000C94310C0E940E0C70F3959FC1F3950FC0
:1018A00050E0551F629FF001729FBB27F00DB11DE4
:1018B000639FAA27F00DB11DAA1F649F6627B00D74
:1018C000A11D661F829F2227B00DA11D621F739F5D
:1018D000B00DA11D621F839FA00D611D221F749F6B
:1018E0003327A00D611D231F849F600D211D822FB2
:1018F000762F6A2F11249F5750409AF0F1F08823D9
:101900004AF0EE0FFF1FBB1F661F771F881F915005
:101910005040A9F79E3F510580F00C94E60B0C94C3
:10192000310C5F3FE4F3983ED4F386957795679545
:10193000B795F795E7959F5FC1F7FE2B880F911D2F
:0C1940009695879597F90895F894FFCFCD
:10194C0064000A2A2A2A2A2A2A2A2A2A2057656C5B
:10195C00636F6D6520546F20436F6E74726F6C20D3
:10196C004D6F6465202A2A2A2A2A2A2A2A2A2A2AF8
:10197C002A0A000A2A2A2A2A2A2A2A2A2A205765C7
:10198C006C636F6D6520546F2041766F6964696E6E
:10199C0067204D6F6465202A2A2A2A2A2A2A2A2A95
:1019AC002A2A2A0A000A2A2A2A2A2A2A2A2A2A2AF5
:1019BC002A2A2A2A2A2A2A2A2A2A2A2A2A2A2A2A7B
:1019CC002A2A2A2A2A2A2A2A2A2A2A2A2A2A2A2A6B
:1019DC002A2A2A2A2A2A0A0043686F6F73652079FB
:1019EC006F7572206D6F64650A2020612D466F72D1
:1019FC0020436F6E74726F6C204D6F64650A2020EB
:101A0C00622D41766F6964696E6720616E64205245
:101A1C00616E646F6D20536561726368204D6F64F5
:101A2C00650A2020632D4C696E6520466F6C6C6FC7
:101A3C00776572204D6F64650A20002A2A2A2A2AAB
:101A4C002A2A2A2A2A2A2A2A2A2A2A2A2A2A2A2AEA
:101A5C002A2A2A2A2A2A2A2A2A2A2A2A2A2A2A2ADA
:0E1A6C002A2A2A2A2A2A2A2A2A2A2A2A0A006A
:00000001FF
